{
  "contractName": "IRV_Votingtoken",
  "abi": [
    {
      "inputs": [],
      "payable": false,
      "stateMutability": "nonpayable",
      "type": "constructor"
    },
    {
      "anonymous": false,
      "inputs": [
        {
          "indexed": false,
          "internalType": "address",
          "name": "issuer",
          "type": "address"
        },
        {
          "indexed": false,
          "internalType": "bytes32",
          "name": "proposal",
          "type": "bytes32"
        },
        {
          "indexed": false,
          "internalType": "uint256",
          "name": "endTime",
          "type": "uint256"
        }
      ],
      "name": "newProposal",
      "type": "event"
    },
    {
      "anonymous": false,
      "inputs": [
        {
          "indexed": false,
          "internalType": "bytes32",
          "name": "proposal",
          "type": "bytes32"
        },
        {
          "indexed": false,
          "internalType": "address",
          "name": "winner",
          "type": "address"
        }
      ],
      "name": "voteResult",
      "type": "event"
    },
    {
      "anonymous": false,
      "inputs": [
        {
          "indexed": false,
          "internalType": "address",
          "name": "votee",
          "type": "address"
        },
        {
          "indexed": false,
          "internalType": "bytes32",
          "name": "proposal",
          "type": "bytes32"
        },
        {
          "components": [
            {
              "internalType": "address[]",
              "name": "candidates",
              "type": "address[]"
            },
            {
              "internalType": "address",
              "name": "votee",
              "type": "address"
            }
          ],
          "indexed": false,
          "internalType": "struct IRV_Votingtoken.votingCand",
          "name": "voteType",
          "type": "tuple"
        },
        {
          "indexed": false,
          "internalType": "uint256",
          "name": "timeVote",
          "type": "uint256"
        }
      ],
      "name": "voter",
      "type": "event"
    },
    {
      "constant": true,
      "inputs": [],
      "name": "name",
      "outputs": [
        {
          "internalType": "string",
          "name": "",
          "type": "string"
        }
      ],
      "payable": false,
      "stateMutability": "view",
      "type": "function"
    },
    {
      "constant": true,
      "inputs": [],
      "name": "symbol",
      "outputs": [
        {
          "internalType": "string",
          "name": "",
          "type": "string"
        }
      ],
      "payable": false,
      "stateMutability": "view",
      "type": "function"
    },
    {
      "constant": true,
      "inputs": [],
      "name": "decimals",
      "outputs": [
        {
          "internalType": "uint8",
          "name": "",
          "type": "uint8"
        }
      ],
      "payable": false,
      "stateMutability": "view",
      "type": "function"
    },
    {
      "constant": true,
      "inputs": [],
      "name": "totalSupply",
      "outputs": [
        {
          "internalType": "uint8",
          "name": "",
          "type": "uint8"
        }
      ],
      "payable": false,
      "stateMutability": "view",
      "type": "function"
    },
    {
      "constant": true,
      "inputs": [
        {
          "internalType": "address",
          "name": "address_to_check",
          "type": "address"
        }
      ],
      "name": "getBalance",
      "outputs": [
        {
          "internalType": "uint8",
          "name": "",
          "type": "uint8"
        }
      ],
      "payable": false,
      "stateMutability": "view",
      "type": "function"
    },
    {
      "constant": false,
      "inputs": [
        {
          "internalType": "bytes32",
          "name": "new_proposal",
          "type": "bytes32"
        },
        {
          "internalType": "address[]",
          "name": "ballot_names",
          "type": "address[]"
        }
      ],
      "name": "createProposal",
      "outputs": [],
      "payable": false,
      "stateMutability": "nonpayable",
      "type": "function"
    },
    {
      "constant": false,
      "inputs": [
        {
          "internalType": "bytes32",
          "name": "proposal",
          "type": "bytes32"
        }
      ],
      "name": "checkProposal",
      "outputs": [
        {
          "internalType": "address",
          "name": "winner",
          "type": "address"
        }
      ],
      "payable": false,
      "stateMutability": "nonpayable",
      "type": "function"
    },
    {
      "constant": false,
      "inputs": [
        {
          "internalType": "bytes32",
          "name": "proposal",
          "type": "bytes32"
        },
        {
          "components": [
            {
              "internalType": "address[]",
              "name": "candidates",
              "type": "address[]"
            },
            {
              "internalType": "address",
              "name": "votee",
              "type": "address"
            }
          ],
          "internalType": "struct IRV_Votingtoken.votingCand",
          "name": "voters_choices",
          "type": "tuple"
        }
      ],
      "name": "vote",
      "outputs": [],
      "payable": false,
      "stateMutability": "nonpayable",
      "type": "function"
    },
    {
      "constant": false,
      "inputs": [
        {
          "internalType": "address",
          "name": "address_to_add",
          "type": "address"
        },
        {
          "internalType": "uint8",
          "name": "votes",
          "type": "uint8"
        }
      ],
      "name": "mint",
      "outputs": [],
      "payable": false,
      "stateMutability": "nonpayable",
      "type": "function"
    }
  ],
  "bytecode": "0x60806040526040518060400160405280600781526020017f51566f74696e6700000000000000000000000000000000000000000000000000815250600190805190602001906200005192919062000115565b506040518060400160405280600281526020017f5156000000000000000000000000000000000000000000000000000000000000815250600290805190602001906200009f92919062000115565b506000600360006101000a81548160ff021916908360ff160217905550603c600455348015620000ce57600080fd5b50336000806101000a81548173ffffffffffffffffffffffffffffffffffffffff021916908373ffffffffffffffffffffffffffffffffffffffff160217905550620001c4565b828054600181600116156101000203166002900490600052602060002090601f016020900481019282601f106200015857805160ff191683800117855562000189565b8280016001018555821562000189579182015b82811115620001885782518255916020019190600101906200016b565b5b5090506200019891906200019c565b5090565b620001c191905b80821115620001bd576000816000905550600101620001a3565b5090565b90565b61269a80620001d46000396000f3fe608060405234801561001057600080fd5b50600436106100935760003560e01c8063691562a011610066578063691562a01461012257806395d89b411461013e578063b071051e1461015c578063b5c706cf14610178578063f8b2cb4f1461019457610093565b806306fdde031461009857806318160ddd146100b6578063313ce567146100d457806340ac1a08146100f2575b600080fd5b6100a06101c4565b6040516100ad9190612376565b60405180910390f35b6100be610266565b6040516100cb9190612458565b60405180910390f35b6100dc61027d565b6040516100e99190612458565b60405180910390f35b61010c60048036036101079190810190611ea6565b610294565b60405161011991906122af565b60405180910390f35b61013c60048036036101379190810190611e6a565b610fd2565b005b6101466110c6565b6040516101539190612376565b60405180910390f35b61017660048036036101719190810190611f23565b611168565b005b610192600480360361018d9190810190611ecf565b611718565b005b6101ae60048036036101a99190810190611e41565b6119ae565b6040516101bb9190612458565b60405180910390f35b606060018054600181600116156101000203166002900480601f01602080910402602001604051908101604052809291908181526020018280546001816001161561010002031660029004801561025c5780601f106102315761010080835404028352916020019161025c565b820191906000526020600020905b81548152906001019060200180831161023f57829003601f168201915b5050505050905090565b6000600360019054906101000a900460ff16905090565b6000600360009054906101000a900460ff16905090565b600081600115156006600083815260200190815260200160002060009054906101000a900460ff161515146102c857600080fd5b60011515600a60003373ffffffffffffffffffffffffffffffffffffffff1673ffffffffffffffffffffffffffffffffffffffff168152602001908152602001600020600101600085815260200190815260200160002060009054906101000a900460ff1615151461036f576040517f08c379a000000000000000000000000000000000000000000000000000000000815260040161036690612418565b60405180910390fd5b6007600084815260200190815260200160002054421161038e57600080fd5b60006009600085815260200190815260200160002060020154116103b157600080fd5b6000600160026009600087815260200190815260200160002060020154816103d557fe5b0401905060006009600086815260200190815260200160002060050160006008600088815260200190815260200160002060008154811061041257fe5b9060005260206000200160009054906101000a900473ffffffffffffffffffffffffffffffffffffffff1673ffffffffffffffffffffffffffffffffffffffff1673ffffffffffffffffffffffffffffffffffffffff16815260200190815260200160002060009054906101000a900460ff1660ff16905060008060008090505b60086000898152602001908152602001600020805490508110156108c05784600960008a81526020019081526020016000206005016000600860008c815260200190815260200160002084815481106104e857fe5b9060005260206000200160009054906101000a900473ffffffffffffffffffffffffffffffffffffffff1673ffffffffffffffffffffffffffffffffffffffff1673ffffffffffffffffffffffffffffffffffffffff16815260200190815260200160002060009054906101000a900460ff1660ff1610610705576000600960008a815260200190815260200160002060030160006101000a81548160ff0219169083151502179055506008600089815260200190815260200160002081815481106105b057fe5b9060005260206000200160009054906101000a900473ffffffffffffffffffffffffffffffffffffffff16600960008a815260200190815260200160002060030160016101000a81548173ffffffffffffffffffffffffffffffffffffffff021916908373ffffffffffffffffffffffffffffffffffffffff1602179055507f8fa33ea756af04c79d303fdfdbcaa9913b5a8b1445d65323600a6abac90a792e88600860008b8152602001908152602001600020838154811061066f57fe5b9060005260206000200160009054906101000a900473ffffffffffffffffffffffffffffffffffffffff166040516106a892919061234d565b60405180910390a16008600089815260200190815260200160002081815481106106ce57fe5b9060005260206000200160009054906101000a900473ffffffffffffffffffffffffffffffffffffffff1696505050505050610fcc565b600960008981526020019081526020016000206005016000600860008b8152602001908152602001600020838154811061073b57fe5b9060005260206000200160009054906101000a900473ffffffffffffffffffffffffffffffffffffffff1673ffffffffffffffffffffffffffffffffffffffff1673ffffffffffffffffffffffffffffffffffffffff16815260200190815260200160002060009054906101000a900460ff1660ff168411156108b557600960008981526020019081526020016000206005016000600860008b815260200190815260200160002083815481106107ee57fe5b9060005260206000200160009054906101000a900473ffffffffffffffffffffffffffffffffffffffff1673ffffffffffffffffffffffffffffffffffffffff1673ffffffffffffffffffffffffffffffffffffffff16815260200190815260200160002060009054906101000a900460ff1660ff16935060086000898152602001908152602001600020818154811061088457fe5b9060005260206000200160009054906101000a900473ffffffffffffffffffffffffffffffffffffffff1692508091505b806001019050610493565b50600060086000898152602001908152602001600020905060008090505b600115610fc55760008090505b600960008b815260200190815260200160002060010154811015610a8f578473ffffffffffffffffffffffffffffffffffffffff16600960008c815260200190815260200160002060040160008381526020019081526020016000206000018360ff168154811061095857fe5b9060005260206000200160009054906101000a900473ffffffffffffffffffffffffffffffffffffffff1673ffffffffffffffffffffffffffffffffffffffff161415610a84576001600960008c81526020019081526020016000206005016000600960008e815260200190815260200160002060040160008581526020019081526020016000206000016001860160ff16815481106109f457fe5b9060005260206000200160009054906101000a900473ffffffffffffffffffffffffffffffffffffffff1673ffffffffffffffffffffffffffffffffffffffff1673ffffffffffffffffffffffffffffffffffffffff16815260200190815260200160002060008282829054906101000a900460ff160192506101000a81548160ff021916908360ff1602179055505b8060010190506108eb565b5081600183805490500381548110610aa357fe5b9060005260206000200160009054906101000a900473ffffffffffffffffffffffffffffffffffffffff16828481548110610ada57fe5b9060005260206000200160006101000a81548173ffffffffffffffffffffffffffffffffffffffff021916908373ffffffffffffffffffffffffffffffffffffffff16021790555081600183805490500381548110610b3557fe5b9060005260206000200160006101000a81549073ffffffffffffffffffffffffffffffffffffffff021916905581805480919060019003610b769190611af0565b50600960008a8152602001908152602001600020600501600083600081548110610b9c57fe5b9060005260206000200160009054906101000a900473ffffffffffffffffffffffffffffffffffffffff1673ffffffffffffffffffffffffffffffffffffffff1673ffffffffffffffffffffffffffffffffffffffff16815260200190815260200160002060009054906101000a900460ff1660ff16945060008090505b8280549050811015610fb95786600960008c81526020019081526020016000206005016000858481548110610c4b57fe5b9060005260206000200160009054906101000a900473ffffffffffffffffffffffffffffffffffffffff1673ffffffffffffffffffffffffffffffffffffffff1673ffffffffffffffffffffffffffffffffffffffff16815260200190815260200160002060009054906101000a900460ff1660ff1610610e34576000600960008c815260200190815260200160002060030160006101000a81548160ff021916908315150217905550828181548110610d0157fe5b9060005260206000200160009054906101000a900473ffffffffffffffffffffffffffffffffffffffff16600960008c815260200190815260200160002060030160016101000a81548173ffffffffffffffffffffffffffffffffffffffff021916908373ffffffffffffffffffffffffffffffffffffffff1602179055507f8fa33ea756af04c79d303fdfdbcaa9913b5a8b1445d65323600a6abac90a792e8a848381548110610dae57fe5b9060005260206000200160009054906101000a900473ffffffffffffffffffffffffffffffffffffffff16604051610de792919061234d565b60405180910390a1828181548110610dfb57fe5b9060005260206000200160009054906101000a900473ffffffffffffffffffffffffffffffffffffffff16985050505050505050610fcc565b600960008b81526020019081526020016000206005016000848381548110610e5857fe5b9060005260206000200160009054906101000a900473ffffffffffffffffffffffffffffffffffffffff1673ffffffffffffffffffffffffffffffffffffffff1673ffffffffffffffffffffffffffffffffffffffff16815260200190815260200160002060009054906101000a900460ff1660ff16861115610fae57600960008b81526020019081526020016000206005016000848381548110610ef957fe5b9060005260206000200160009054906101000a900473ffffffffffffffffffffffffffffffffffffffff1673ffffffffffffffffffffffffffffffffffffffff1673ffffffffffffffffffffffffffffffffffffffff16815260200190815260200160002060009054906101000a900460ff1660ff169550828181548110610f7d57fe5b9060005260206000200160009054906101000a900473ffffffffffffffffffffffffffffffffffffffff1694508093505b806001019050610c1a565b508060010190506108de565b5050505050505b50919050565b6000809054906101000a900473ffffffffffffffffffffffffffffffffffffffff1673ffffffffffffffffffffffffffffffffffffffff163373ffffffffffffffffffffffffffffffffffffffff161461102b57600080fd5b80600360018282829054906101000a900460ff160192506101000a81548160ff021916908360ff16021790555080600560008473ffffffffffffffffffffffffffffffffffffffff1673ffffffffffffffffffffffffffffffffffffffff16815260200190815260200160002060008282829054906101000a900460ff160192506101000a81548160ff021916908360ff1602179055505050565b606060028054600181600116156101000203166002900480601f01602080910402602001604051908101604052809291908181526020018280546001816001161561010002031660029004801561115e5780601f106111335761010080835404028352916020019161115e565b820191906000526020600020905b81548152906001019060200180831161114157829003601f168201915b5050505050905090565b81600115156006600083815260200190815260200160002060009054906101000a900460ff1615151461119a57600080fd5b82828060000151516008600084815260200190815260200160002080549050146111c357600080fd5b60008090505b8160000151518110156112c257600080905060008090505b60086000868152602001908152602001600020805490508110156112a45760086000868152602001908152602001600020818154811061121d57fe5b9060005260206000200160009054906101000a900473ffffffffffffffffffffffffffffffffffffffff1673ffffffffffffffffffffffffffffffffffffffff168460000151848151811061126e57fe5b602002602001015173ffffffffffffffffffffffffffffffffffffffff16141561129757600191505b80806001019150506111e1565b5060011515811515146112b657600080fd5b508060010190506111c9565b5060016112ce336119ae565b60ff161015611312576040517f08c379a0000000000000000000000000000000000000000000000000000000008152600401611309906123f8565b60405180910390fd5b60076000868152602001908152602001600020544210611367576040517f08c379a000000000000000000000000000000000000000000000000000000000815260040161135e906123b8565b60405180910390fd5b60011515600a60003373ffffffffffffffffffffffffffffffffffffffff1673ffffffffffffffffffffffffffffffffffffffff168152602001908152602001600020600101600087815260200190815260200160002060009054906101000a900460ff161515141561140f576040517f08c379a000000000000000000000000000000000000000000000000000000000815260040161140690612438565b60405180910390fd5b600042905061141f336001611a04565b84600960008881526020019081526020016000206004016000600960008a81526020019081526020016000206001015481526020019081526020016000206000820151816000019080519060200190611479929190611b1c565b5060208201518160010160006101000a81548173ffffffffffffffffffffffffffffffffffffffff021916908373ffffffffffffffffffffffffffffffffffffffff1602179055509050506009600087815260200190815260200160002060010160008154809291906001019190505550600085600001516000815181106114fd57fe5b6020026020010151905060016009600089815260200190815260200160002060050160008373ffffffffffffffffffffffffffffffffffffffff1673ffffffffffffffffffffffffffffffffffffffff16815260200190815260200160002060008282829054906101000a900460ff160192506101000a81548160ff021916908360ff160217905550600160096000898152602001908152602001600020600201600082825401925050819055506001600a60003373ffffffffffffffffffffffffffffffffffffffff1673ffffffffffffffffffffffffffffffffffffffff168152602001908152602001600020600101600089815260200190815260200160002060006101000a81548160ff02191690831515021790555085600a60003373ffffffffffffffffffffffffffffffffffffffff1673ffffffffffffffffffffffffffffffffffffffff16815260200190815260200160002060020160008981526020019081526020016000206000820151816000019080519060200190611687929190611b1c565b5060208201518160010160006101000a81548173ffffffffffffffffffffffffffffffffffffffff021916908373ffffffffffffffffffffffffffffffffffffffff1602179055509050507fd09578280cf925f8be0112d0963e08b805b0631a698bf05f6dd5b1463d41216b3388888560405161170794939291906122ca565b60405180910390a150505050505050565b600115156006600084815260200190815260200160002060009054906101000a900460ff1615151415611780576040517f08c379a000000000000000000000000000000000000000000000000000000000815260040161177790612398565b60405180910390fd5b60016006600084815260200190815260200160002060006101000a81548160ff021916908315150217905550600060045442019050806007600085815260200190815260200160002081905550816008600085815260200190815260200160002090805190602001906117f4929190611ba6565b506040518060a001604052808481526020016000815260200160008152602001600015158152602001600073ffffffffffffffffffffffffffffffffffffffff168152506009600085815260200190815260200160002060008201518160000155602082015181600101556040820151816002015560608201518160030160006101000a81548160ff02191690831515021790555060808201518160030160016101000a81548173ffffffffffffffffffffffffffffffffffffffff021916908373ffffffffffffffffffffffffffffffffffffffff16021790555090505060008090505b825181101561196d57600060096000868152602001908152602001600020600501600085848151811061190857fe5b602002602001015173ffffffffffffffffffffffffffffffffffffffff1673ffffffffffffffffffffffffffffffffffffffff16815260200190815260200160002060006101000a81548160ff021916908360ff1602179055508060010190506118d9565b507f5ef1a7cffd247e244ed2c9e4626af31c9981880dded73ba35fc2f53b423964c73384836040516119a193929190612316565b60405180910390a1505050565b6000600560008373ffffffffffffffffffffffffffffffffffffffff1673ffffffffffffffffffffffffffffffffffffffff16815260200190815260200160002060009054906101000a900460ff169050919050565b8060ff16611a11836119ae565b60ff161015611a55576040517f08c379a0000000000000000000000000000000000000000000000000000000008152600401611a4c906123d8565b60405180910390fd5b80600360018282829054906101000a900460ff160392506101000a81548160ff021916908360ff16021790555080600560008473ffffffffffffffffffffffffffffffffffffffff1673ffffffffffffffffffffffffffffffffffffffff16815260200190815260200160002060008282829054906101000a900460ff160392506101000a81548160ff021916908360ff1602179055505050565b815481835581811115611b1757818360005260206000209182019101611b169190611c30565b5b505050565b828054828255906000526020600020908101928215611b95579160200282015b82811115611b945782518260006101000a81548173ffffffffffffffffffffffffffffffffffffffff021916908373ffffffffffffffffffffffffffffffffffffffff16021790555091602001919060010190611b3c565b5b509050611ba29190611c55565b5090565b828054828255906000526020600020908101928215611c1f579160200282015b82811115611c1e5782518260006101000a81548173ffffffffffffffffffffffffffffffffffffffff021916908373ffffffffffffffffffffffffffffffffffffffff16021790555091602001919060010190611bc6565b5b509050611c2c9190611c55565b5090565b611c5291905b80821115611c4e576000816000905550600101611c36565b5090565b90565b611c9591905b80821115611c9157600081816101000a81549073ffffffffffffffffffffffffffffffffffffffff021916905550600101611c5b565b5090565b90565b600081359050611ca781612612565b92915050565b600082601f830112611cbe57600080fd5b8135611cd1611ccc826124a0565b612473565b91508181835260208401935060208101905083856020840282011115611cf657600080fd5b60005b83811015611d265781611d0c8882611c98565b845260208401935060208301925050600181019050611cf9565b5050505092915050565b600082601f830112611d4157600080fd5b8135611d54611d4f826124c8565b612473565b91508181835260208401935060208101905083856020840282011115611d7957600080fd5b60005b83811015611da95781611d8f8882611c98565b845260208401935060208301925050600181019050611d7c565b5050505092915050565b600081359050611dc281612629565b92915050565b600060408284031215611dda57600080fd5b611de46040612473565b9050600082013567ffffffffffffffff811115611e0057600080fd5b611e0c84828501611cad565b6000830152506020611e2084828501611c98565b60208301525092915050565b600081359050611e3b81612640565b92915050565b600060208284031215611e5357600080fd5b6000611e6184828501611c98565b91505092915050565b60008060408385031215611e7d57600080fd5b6000611e8b85828601611c98565b9250506020611e9c85828601611e2c565b9150509250929050565b600060208284031215611eb857600080fd5b6000611ec684828501611db3565b91505092915050565b60008060408385031215611ee257600080fd5b6000611ef085828601611db3565b925050602083013567ffffffffffffffff811115611f0d57600080fd5b611f1985828601611d30565b9150509250929050565b60008060408385031215611f3657600080fd5b6000611f4485828601611db3565b925050602083013567ffffffffffffffff811115611f6157600080fd5b611f6d85828601611dc8565b9150509250929050565b6000611f838383611f9e565b60208301905092915050565b611f9881612598565b82525050565b611fa781612545565b82525050565b611fb681612545565b82525050565b6000611fc782612500565b611fd18185612523565b9350611fdc836124f0565b8060005b8381101561200d578151611ff48882611f77565b9750611fff83612516565b925050600181019050611fe0565b5085935050505092915050565b61202381612557565b82525050565b60006120348261250b565b61203e8185612534565b935061204e8185602086016125ce565b61205781612601565b840191505092915050565b600061206f601f83612534565b91507f416c726561647920612070726f706f73616c2062792074686973206e616d65006000830152602082019050919050565b60006120af601983612534565b91507f497420697320706173742074696d65206f6620766f74696e67000000000000006000830152602082019050919050565b60006120ef602883612534565b91507f43616e6e6f74206275726e206d6f726520766f746573207468656e206164647260008301527f657373206f776e730000000000000000000000000000000000000000000000006020830152604082019050919050565b6000612155603d83612534565b91507f596f752063616e206f6e6c7920766f74652077697468206173206d616e79207660008301527f6f74657320617320796f752063757272656e746c7920706f73736573730000006020830152604082019050919050565b60006121bb602383612534565b91507f596f75206d757374206f6620766f74656420746f20636865636b2070726f706f60008301527f73616c00000000000000000000000000000000000000000000000000000000006020830152604082019050919050565b6000612221601583612534565b91507f596f752063616e6e6f7420766f746520747769636500000000000000000000006000830152602082019050919050565b600060408301600083015184820360008601526122718282611fbc565b91505060208301516122866020860182611f9e565b508091505092915050565b61229a81612581565b82525050565b6122a98161258b565b82525050565b60006020820190506122c46000830184611fad565b92915050565b60006080820190506122df6000830187611f8f565b6122ec602083018661201a565b81810360408301526122fe8185612254565b905061230d6060830184612291565b95945050505050565b600060608201905061232b6000830186611f8f565b612338602083018561201a565b6123456040830184612291565b949350505050565b6000604082019050612362600083018561201a565b61236f6020830184611fad565b9392505050565b600060208201905081810360008301526123908184612029565b905092915050565b600060208201905081810360008301526123b181612062565b9050919050565b600060208201905081810360008301526123d1816120a2565b9050919050565b600060208201905081810360008301526123f1816120e2565b9050919050565b6000602082019050818103600083015261241181612148565b9050919050565b60006020820190508181036000830152612431816121ae565b9050919050565b6000602082019050818103600083015261245181612214565b9050919050565b600060208201905061246d60008301846122a0565b92915050565b6000604051905081810181811067ffffffffffffffff8211171561249657600080fd5b8060405250919050565b600067ffffffffffffffff8211156124b757600080fd5b602082029050602081019050919050565b600067ffffffffffffffff8211156124df57600080fd5b602082029050602081019050919050565b6000819050602082019050919050565b600081519050919050565b600081519050919050565b6000602082019050919050565b600082825260208201905092915050565b600082825260208201905092915050565b600061255082612561565b9050919050565b6000819050919050565b600073ffffffffffffffffffffffffffffffffffffffff82169050919050565b6000819050919050565b600060ff82169050919050565b60006125a3826125aa565b9050919050565b60006125b5826125bc565b9050919050565b60006125c782612561565b9050919050565b60005b838110156125ec5780820151818401526020810190506125d1565b838111156125fb576000848401525b50505050565b6000601f19601f8301169050919050565b61261b81612545565b811461262657600080fd5b50565b61263281612557565b811461263d57600080fd5b50565b6126498161258b565b811461265457600080fd5b5056fea365627a7a72315820d2360359ab442e8905a7886dd76a3540aa8f4f7b695eae096c4ffed8ba829cf86c6578706572696d656e74616cf564736f6c63430005100040",
  "source": "pragma solidity >0.4.8 <= 0.7.0;\npragma experimental ABIEncoderV2;\n \nimport \"openzeppelin-solidity/contracts/math/SafeMath.sol\";\n\n \ncontract IRV_Votingtoken {\n    using SafeMath for uint256;\n    address private owner;\n\n    string private _name = \"QVoting\";\n    string private _symbol = \"QV\";\n    uint8 private _decimals = 0;\n    uint8 private _totalSupply;\n    \n    \n    uint256 private vote_waiting_time = 1 minutes;\n    mapping(address => uint8) private _balances;\n    mapping(bytes32 => bool) private proposals;\n    mapping(bytes32 => uint256) proposalsEnd;\n\n\n    struct votingCand {\n        address[] candidates;\n        address votee;\n    }\n    \n    mapping(bytes32 => address[]) candidate_master;\n    \n    \n    struct voteeInfo {\n        address votee;\n        mapping(bytes32 => bool) voted;\n        mapping(bytes32 => votingCand) proposalcandidates;\n    }  \n\n\n    struct votingInfo {\n        bytes32 proposal;\n        uint256 ballotSize;\n        uint256 totalVotes;\n        bool active;\n        address winner;\n        mapping(uint256 => votingCand) ballot;\n        mapping(address => uint8) AllCandiates_to_Votes;\n    }\n\n    mapping(bytes32 => votingInfo) results;\n    mapping(address => voteeInfo) voteeDB;\n\n\n    //Event when a new proposal is created\n    event newProposal (\n        address issuer,\n        bytes32 proposal,\n        uint256 endTime\n    );\n\n    //Event when an address votes on a proposal\n    event voter(\n        address votee,\n        bytes32 proposal,\n        votingCand voteType,\n        uint256 timeVote\n    );\n       \n    //Event when an proposal is out of time and has been checked.\n    event voteResult(\n        bytes32 proposal,\n        address winner\n    );\n\n       \n\n    constructor() public {\n        owner = msg.sender;\n    }\n\n    modifier isProposal(bytes32 proposal) {\n     require(proposals[proposal] == true);\n     _;   \n    }\n\n    modifier isValidVote( bytes32 proposal, votingCand memory voters_choices) {\n        require(candidate_master[proposal].length == voters_choices.candidates.length);\n        for(uint i = 0; i < voters_choices.candidates.length; ++i) {\n\n            bool candFound = false;\n            for(uint j = 0; j < candidate_master[proposal].length; j++ ) {\n                if(voters_choices.candidates[i] == candidate_master[proposal][j]) {\n                   candFound = true; \n                }\n            }\n            require(candFound == true);\n        }\n        _;\n    }\n\n    modifier isOwner() {\n        require(msg.sender == owner);\n        _;\n    }\n    /**\n     * @dev Returns the name of the token.\n     */\n    function name() public view returns (string memory) {\n        return _name;\n    }\n\n    /**\n     * @dev Returns the symbol of the token, usually a shorter version of the\n     * name.\n     */\n    function symbol() public view returns (string memory) {\n        return _symbol;\n    }\n\n    /**\n     * @dev Returns the number of decimals of the token.\n     * Note that since this is a voting token we do not want it to be divisible\n     */\n    function decimals() public view returns (uint8) {\n        return _decimals;\n    }\n    \n    /**\n     * @dev The total number of tokens in circulation\n     */\n    function totalSupply() public view returns (uint8) {\n        return _totalSupply;\n    }\n\n     /**\n     * @param address_to_check The address to check\n     * @dev Returns the balance of voting tokens of a given address\n     */\n    function getBalance(address address_to_check) public view returns(uint8) {\n        return _balances[address_to_check];\n    }\n\n    /**\n     * @param new_proposal The UID of other unique identifier for proposals, it MUST be unique\n     * @param ballot_names The list of all addresses who are being voted on\n     * @dev Creates a new proposal to be voted on\n     */\n    function createProposal(bytes32 new_proposal, address[] memory ballot_names) public {\n        require(proposals[new_proposal] != true, \"Already a proposal by this name\");\n        //Require that none of these are bad addresses needs a modifier\n        proposals[new_proposal] = true;\n        uint256 endTime = now + vote_waiting_time;\n        proposalsEnd[new_proposal] = endTime;\n\n        candidate_master[new_proposal] = ballot_names; // The list of candidates on the ballot\n        \n        //mapping(address => uint8) storage temp_votes_and_candidates;\n        \n\n       \n        results[new_proposal] = votingInfo(new_proposal, 0,  0, false, address(0) );\n   \n        for(uint i = 0; i < ballot_names.length; ++i) {\n            results[new_proposal].AllCandiates_to_Votes[ballot_names[i]] = 0;\n        }\n        emit newProposal(\n            msg.sender, new_proposal, endTime );\n        }\n\n\n     /**\n     * @param proposal A valid proposal that has been created, member function checks proposal validity\n     * @dev Checks the outcome of a proposal, for this to be sucessful the time at which this function is called\n     * MUST be after the end Time of the voting. It is purposley not possible to check a proposal midvote.\n     */\n    function checkProposal(bytes32 proposal) isProposal(proposal) public returns(address winner){\n        require(voteeDB[msg.sender].voted[proposal] == true, \"You must of voted to check proposal\");\n        require(now > proposalsEnd[proposal]);\n        require(results[proposal].totalVotes > 0);\n        uint256 total = ((results[proposal].totalVotes / 2) + 1);\n        uint256 minCand_votes = results[proposal].AllCandiates_to_Votes[candidate_master[proposal][0]];\n        address min;\n        uint256 min_index;\n         //CHECKS IF THERE IS A MAJORITY WINNER\n        for(uint256 i = 0; i < candidate_master[proposal].length; ++i) {\n            if(results[proposal].AllCandiates_to_Votes[candidate_master[proposal][i]] >= total) {\n                results[proposal].active = false;\n                results[proposal].winner = candidate_master[proposal][i]; //FIXME who passed\n                emit voteResult(proposal, candidate_master[proposal][i] );\n                return candidate_master[proposal][i];\n            }\n            if(minCand_votes > results[proposal].AllCandiates_to_Votes[candidate_master[proposal][i]] ) {\n                //If there is a tie on minCand and there is no majority winner TODO\n                minCand_votes = results[proposal].AllCandiates_to_Votes[candidate_master[proposal][i]];\n                min = candidate_master[proposal][i];\n                min_index = i;\n                }\n        }\n        //CONTINUES TO REMOVE SMALLEST candidates\n       address[] storage remaining = candidate_master[proposal];\n       uint8 iter = 0;\n       while(true) {\n           for(uint256 i = 0; i < results[proposal].ballotSize; ++i ) {\n               if(results[proposal].ballot[i].candidates[iter] == min) {\n                   results[proposal].AllCandiates_to_Votes[results[proposal].ballot[i].candidates[iter + 1]] += 1;\n               }\n           } //REMOVE candidate\n        remaining[min_index] = remaining[remaining.length - 1];\n        delete remaining[remaining.length -1];\n        remaining.length--;\n        minCand_votes = results[proposal].AllCandiates_to_Votes[remaining[0]];\n        for(uint i = 0; i < remaining.length; ++i) {\n            if(results[proposal].AllCandiates_to_Votes[remaining[i]] >= total) {\n                results[proposal].active = false;\n                results[proposal].winner = remaining[i]; //FIXME who passed\n                emit voteResult(proposal, remaining[i] );\n                return remaining[i];\n            }\n            if(minCand_votes > results[proposal].AllCandiates_to_Votes[remaining[i]] ) {\n                //If there is a tie on minCand and there is no majority winner TODO\n                minCand_votes = results[proposal].AllCandiates_to_Votes[remaining[i]];\n                min = remaining[i];\n                min_index = i;\n                }\n        }\n       \n        ++iter;\n       } //WHILE\n\n    } // FUNCTION\n\n     /**\n     * @param proposal A valid proposal that has been created, member function checks proposal validity\n     * @param voters_choices A structure that has the voters choices and the name of the voter\n     * @dev Allows an given address to  vote on a proposal given by the proposal name, and their candidate choices\n     * Each address can only vote ONCE\n     */\n    function vote(bytes32 proposal, votingCand memory voters_choices ) isProposal(proposal) isValidVote(proposal,voters_choices) public {\n        require(getBalance(msg.sender) >= 1, \"You can only vote with as many votes as you currently possess\");\n        require(now <  proposalsEnd[proposal], \"It is past time of voting\");\n        require(voteeDB[msg.sender].voted[proposal] != true, \"You cannot vote twice\");\n        uint256 votingTime = now;\n        //uint8 weight = sqrt(votes);\n        burn(msg.sender, 1);\n        results[proposal].ballot[results[proposal].ballotSize] = voters_choices;\n        results[proposal].ballotSize++;\n        address first_choice = voters_choices.candidates[0];\n        results[proposal].AllCandiates_to_Votes[first_choice] += 1;\n        results[proposal].totalVotes += 1;\n        voteeDB[msg.sender].voted[proposal] = true;\n        voteeDB[msg.sender].proposalcandidates[proposal] = voters_choices;\n\n        emit voter (msg.sender, proposal, voters_choices, votingTime); \n        \n    }\n\n   \n\n     /**\n     * @param address_to_add Address to give votes too\n     * @param votes the given amount of votes to give to a certain address\n     * @dev Currently this is allowing the owner to send this, however the process of this will most often change when \n     * connected to a dao, it could even be set up automatically to disperse at a given time.\n     */\n    function mint(address address_to_add, uint8 votes) public isOwner() {\n        _totalSupply += votes;\n        _balances[address_to_add] += votes;\n    } \n\n    /**\n     * @param address_to_burn Address to burn votes from\n     * @param votes the given amount of votes to burn to a certain address\n     * @dev Internal function to burn votes after an address votes on an issue.\n     */\n    function burn(address address_to_burn, uint8 votes) internal {\n        require(getBalance(address_to_burn) >= votes, \"Cannot burn more votes then address owns\");\n        _totalSupply -= votes;\n        _balances[address_to_burn] -= votes;\n    }\n\n    \n}\n\n",
  "sourcePath": "/mnt/c/users/colin/dev/Blockchain/quad_dao/contracts/IRV_Votingtoken.sol",
  "compiler": {
    "name": "solc",
    "version": "0.5.16+commit.9c3226ce.Emscripten.clang"
  },
  "schemaVersion": "3.2.3",
  "updatedAt": "2020-11-24T18:30:58.305Z",
  "devdoc": {
    "methods": {
      "checkProposal(bytes32)": {
        "details": "Checks the outcome of a proposal, for this to be sucessful the time at which this function is called MUST be after the end Time of the voting. It is purposley not possible to check a proposal midvote.",
        "params": {
          "proposal": "A valid proposal that has been created, member function checks proposal validity"
        }
      },
      "createProposal(bytes32,address[])": {
        "details": "Creates a new proposal to be voted on",
        "params": {
          "ballot_names": "The list of all addresses who are being voted on",
          "new_proposal": "The UID of other unique identifier for proposals, it MUST be unique"
        }
      },
      "decimals()": {
        "details": "Returns the number of decimals of the token. Note that since this is a voting token we do not want it to be divisible"
      },
      "getBalance(address)": {
        "details": "Returns the balance of voting tokens of a given address",
        "params": {
          "address_to_check": "The address to check"
        }
      },
      "mint(address,uint8)": {
        "details": "Currently this is allowing the owner to send this, however the process of this will most often change when  connected to a dao, it could even be set up automatically to disperse at a given time.",
        "params": {
          "address_to_add": "Address to give votes too",
          "votes": "the given amount of votes to give to a certain address"
        }
      },
      "name()": {
        "details": "Returns the name of the token."
      },
      "symbol()": {
        "details": "Returns the symbol of the token, usually a shorter version of the name."
      },
      "totalSupply()": {
        "details": "The total number of tokens in circulation"
      },
      "vote(bytes32,(address[],address))": {
        "details": "Allows an given address to  vote on a proposal given by the proposal name, and their candidate choices Each address can only vote ONCE",
        "params": {
          "proposal": "A valid proposal that has been created, member function checks proposal validity",
          "voters_choices": "A structure that has the voters choices and the name of the voter"
        }
      }
    }
  },
  "userdoc": {
    "methods": {}
  }
}