{
  "contractName": "Votingtoken",
  "abi": [
    {
      "inputs": [],
      "payable": false,
      "stateMutability": "nonpayable",
      "type": "constructor"
    },
    {
      "constant": true,
      "inputs": [],
      "name": "name",
      "outputs": [
        {
          "internalType": "string",
          "name": "",
          "type": "string"
        }
      ],
      "payable": false,
      "stateMutability": "view",
      "type": "function"
    },
    {
      "constant": true,
      "inputs": [],
      "name": "symbol",
      "outputs": [
        {
          "internalType": "string",
          "name": "",
          "type": "string"
        }
      ],
      "payable": false,
      "stateMutability": "view",
      "type": "function"
    },
    {
      "constant": true,
      "inputs": [],
      "name": "decimals",
      "outputs": [
        {
          "internalType": "uint8",
          "name": "",
          "type": "uint8"
        }
      ],
      "payable": false,
      "stateMutability": "view",
      "type": "function"
    },
    {
      "constant": true,
      "inputs": [],
      "name": "totalSupply",
      "outputs": [
        {
          "internalType": "uint8",
          "name": "",
          "type": "uint8"
        }
      ],
      "payable": false,
      "stateMutability": "view",
      "type": "function"
    },
    {
      "constant": true,
      "inputs": [
        {
          "internalType": "address",
          "name": "address_to_check",
          "type": "address"
        }
      ],
      "name": "getBalance",
      "outputs": [
        {
          "internalType": "uint8",
          "name": "",
          "type": "uint8"
        }
      ],
      "payable": false,
      "stateMutability": "view",
      "type": "function"
    },
    {
      "constant": false,
      "inputs": [
        {
          "internalType": "bytes32",
          "name": "new_proposal",
          "type": "bytes32"
        }
      ],
      "name": "createProposal",
      "outputs": [],
      "payable": false,
      "stateMutability": "nonpayable",
      "type": "function"
    },
    {
      "constant": false,
      "inputs": [
        {
          "internalType": "bytes32",
          "name": "proposal",
          "type": "bytes32"
        }
      ],
      "name": "checkProposal",
      "outputs": [
        {
          "internalType": "bool",
          "name": "truth",
          "type": "bool"
        }
      ],
      "payable": false,
      "stateMutability": "nonpayable",
      "type": "function"
    },
    {
      "constant": false,
      "inputs": [
        {
          "internalType": "bytes32",
          "name": "proposal",
          "type": "bytes32"
        },
        {
          "internalType": "uint8",
          "name": "votes",
          "type": "uint8"
        },
        {
          "internalType": "bool",
          "name": "yesVote",
          "type": "bool"
        }
      ],
      "name": "vote",
      "outputs": [],
      "payable": false,
      "stateMutability": "nonpayable",
      "type": "function"
    },
    {
      "constant": false,
      "inputs": [
        {
          "internalType": "uint8",
          "name": "num",
          "type": "uint8"
        }
      ],
      "name": "sqrt",
      "outputs": [
        {
          "internalType": "uint8",
          "name": "root",
          "type": "uint8"
        }
      ],
      "payable": false,
      "stateMutability": "nonpayable",
      "type": "function"
    },
    {
      "constant": false,
      "inputs": [
        {
          "internalType": "address",
          "name": "address_to_add",
          "type": "address"
        },
        {
          "internalType": "uint8",
          "name": "votes",
          "type": "uint8"
        }
      ],
      "name": "mint",
      "outputs": [],
      "payable": false,
      "stateMutability": "nonpayable",
      "type": "function"
    }
  ],
  "bytecode": "0x60806040526040518060400160405280600781526020017f51566f74696e67000000000000000000000000000000000000000000000000008152506001908051906020019061004f929190610110565b506040518060400160405280600281526020017f51560000000000000000000000000000000000000000000000000000000000008152506002908051906020019061009b929190610110565b506000600360006101000a81548160ff021916908360ff160217905550610e106004553480156100ca57600080fd5b50336000806101000a81548173ffffffffffffffffffffffffffffffffffffffff021916908373ffffffffffffffffffffffffffffffffffffffff1602179055506101b5565b828054600181600116156101000203166002900490600052602060002090601f016020900481019282601f1061015157805160ff191683800117855561017f565b8280016001018555821561017f579182015b8281111561017e578251825591602001919060010190610163565b5b50905061018c9190610190565b5090565b6101b291905b808211156101ae576000816000905550600101610196565b5090565b90565b610fa780620001c56000396000f3fe608060405234801561001057600080fd5b506004361061009e5760003560e01c8063691562a011610066578063691562a0146101e257806395d89b4114610233578063d9cfa7de146102b6578063f5317989146102fd578063f8b2cb4f146103485761009e565b806306fdde03146100a357806318160ddd146101265780632542bf061461014a578063313ce5671461017857806340ac1a081461019c575b600080fd5b6100ab6103a6565b6040518080602001828103825283818151815260200191508051906020019080838360005b838110156100eb5780820151818401526020810190506100d0565b50505050905090810190601f1680156101185780820380516001836020036101000a031916815260200191505b509250505060405180910390f35b61012e610448565b604051808260ff1660ff16815260200191505060405180910390f35b6101766004803603602081101561016057600080fd5b810190808035906020019092919050505061045f565b005b61018061056a565b604051808260ff1660ff16815260200191505060405180910390f35b6101c8600480360360208110156101b257600080fd5b8101908080359060200190929190505050610581565b604051808215151515815260200191505060405180910390f35b610231600480360360408110156101f857600080fd5b81019080803573ffffffffffffffffffffffffffffffffffffffff169060200190929190803560ff169060200190929190505050610795565b005b61023b610889565b6040518080602001828103825283818151815260200191508051906020019080838360005b8381101561027b578082015181840152602081019050610260565b50505050905090810190601f1680156102a85780820380516001836020036101000a031916815260200191505b509250505060405180910390f35b6102fb600480360360608110156102cc57600080fd5b8101908080359060200190929190803560ff16906020019092919080351515906020019092919050505061092b565b005b61032c6004803603602081101561031357600080fd5b81019080803560ff169060200190929190505050610cf8565b604051808260ff1660ff16815260200191505060405180910390f35b61038a6004803603602081101561035e57600080fd5b81019080803573ffffffffffffffffffffffffffffffffffffffff169060200190929190505050610d55565b604051808260ff1660ff16815260200191505060405180910390f35b606060018054600181600116156101000203166002900480601f01602080910402602001604051908101604052809291908181526020018280546001816001161561010002031660029004801561043e5780601f106104135761010080835404028352916020019161043e565b820191906000526020600020905b81548152906001019060200180831161042157829003601f168201915b5050505050905090565b6000600360019054906101000a900460ff16905090565b60016006600083815260200190815260200160002060006101000a81548160ff021916908315150217905550600454420160076000838152602001908152602001600020819055506104af610ead565b6040518060c0016040528083815260200160008152602001600081526020016000815260200160001515815260200160001515815250905080600860008481526020019081526020016000206000820151816000015560208201518160010155604082015181600201556060820151816003015560808201518160040160006101000a81548160ff02191690831515021790555060a08201518160040160016101000a81548160ff0219169083151502179055509050505050565b6000600360009054906101000a900460ff16905090565b600081600115156006600083815260200190815260200160002060009054906101000a900460ff161515146105b557600080fd5b60011515600960003373ffffffffffffffffffffffffffffffffffffffff1673ffffffffffffffffffffffffffffffffffffffff168152602001908152602001600020600101600085815260200190815260200160002060009054906101000a900460ff16151514610672576040517f08c379a0000000000000000000000000000000000000000000000000000000008152600401808060200182810382526023815260200180610f506023913960400191505060405180910390fd5b6007600084815260200190815260200160002054421161069157600080fd5b60086000848152602001908152602001600020600201546008600085815260200190815260200160002060010154111561072c5760006008600085815260200190815260200160002060040160006101000a81548160ff02191690831515021790555060016008600085815260200190815260200160002060040160016101000a81548160ff0219169083151502179055506001915061078f565b60006008600085815260200190815260200160002060040160006101000a81548160ff02191690831515021790555060006008600085815260200190815260200160002060040160016101000a81548160ff021916908315150217905550600091505b50919050565b6000809054906101000a900473ffffffffffffffffffffffffffffffffffffffff1673ffffffffffffffffffffffffffffffffffffffff163373ffffffffffffffffffffffffffffffffffffffff16146107ee57600080fd5b80600360018282829054906101000a900460ff160192506101000a81548160ff021916908360ff16021790555080600560008473ffffffffffffffffffffffffffffffffffffffff1673ffffffffffffffffffffffffffffffffffffffff16815260200190815260200160002060008282829054906101000a900460ff160192506101000a81548160ff021916908360ff1602179055505050565b606060028054600181600116156101000203166002900480601f0160208091040260200160405190810160405280929190818152602001828054600181600116156101000203166002900480156109215780601f106108f657610100808354040283529160200191610921565b820191906000526020600020905b81548152906001019060200180831161090457829003601f168201915b5050505050905090565b82600115156006600083815260200190815260200160002060009054906101000a900460ff1615151461095d57600080fd5b8260ff1661096a33610d55565b60ff1610156109c4576040517f08c379a000000000000000000000000000000000000000000000000000000000815260040180806020018281038252603d815260200180610f13603d913960400191505060405180910390fd5b60076000858152602001908152602001600020544210610a4c576040517f08c379a00000000000000000000000000000000000000000000000000000000081526004018080602001828103825260198152602001807f497420697320706173742074696d65206f6620766f74696e670000000000000081525060200191505060405180910390fd5b60011515600960003373ffffffffffffffffffffffffffffffffffffffff1673ffffffffffffffffffffffffffffffffffffffff168152602001908152602001600020600101600086815260200190815260200160002060009054906101000a900460ff1615151415610b27576040517f08c379a00000000000000000000000000000000000000000000000000000000081526004018080602001828103825260158152602001807f596f752063616e6e6f7420766f7465207477696365000000000000000000000081525060200191505060405180910390fd5b6000610b3284610cf8565b9050610b3e3385610dab565b8215610b70578060ff166008600087815260200190815260200160002060010160008282540192505081905550610b98565b8060ff1660086000878152602001908152602001600020600201600082825401925050819055505b8060ff1660086000878152602001908152602001600020600301600082825401925050819055506001600960003373ffffffffffffffffffffffffffffffffffffffff1673ffffffffffffffffffffffffffffffffffffffff168152602001908152602001600020600101600087815260200190815260200160002060006101000a81548160ff0219169083151502179055508060ff16600960003373ffffffffffffffffffffffffffffffffffffffff1673ffffffffffffffffffffffffffffffffffffffff16815260200190815260200160002060020160008781526020019081526020016000208190555082600960003373ffffffffffffffffffffffffffffffffffffffff1673ffffffffffffffffffffffffffffffffffffffff168152602001908152602001600020600301600087815260200190815260200160002060006101000a81548160ff0219169083151502179055505050505050565b60008060026001840160ff1681610d0b57fe5b04905060008390505b8060ff168260ff161015610d4b578190506002828360ff168660ff1681610d3757fe5b040160ff1681610d4357fe5b049150610d14565b8092505050919050565b6000600560008373ffffffffffffffffffffffffffffffffffffffff1673ffffffffffffffffffffffffffffffffffffffff16815260200190815260200160002060009054906101000a900460ff169050919050565b8060ff16610db883610d55565b60ff161015610e12576040517f08c379a0000000000000000000000000000000000000000000000000000000008152600401808060200182810382526028815260200180610eeb6028913960400191505060405180910390fd5b80600360018282829054906101000a900460ff160392506101000a81548160ff021916908360ff16021790555080600560008473ffffffffffffffffffffffffffffffffffffffff1673ffffffffffffffffffffffffffffffffffffffff16815260200190815260200160002060008282829054906101000a900460ff160392506101000a81548160ff021916908360ff1602179055505050565b6040518060c0016040528060008019168152602001600081526020016000815260200160008152602001600015158152602001600015158152509056fe43616e6e6f74206275726e206d6f726520766f746573207468656e2061646472657373206f776e73596f752063616e206f6e6c7920766f74652077697468206173206d616e7920766f74657320617320796f752063757272656e746c7920706f7373657373596f75206d757374206f6620766f74656420746f20636865636b2070726f706f73616ca265627a7a7231582049fd477d9686023fb2cce350edc1e48d931f033a0f2d91d1f47d40c78c01961864736f6c63430005100032",
  "source": "pragma solidity >0.4.8 <= 0.7.0;\n \nimport \"openzeppelin-solidity/contracts/math/SafeMath.sol\";\n\n \ncontract Votingtoken {\n    using SafeMath for uint256;\n    address private owner;\n\n    string private _name = \"QVoting\";\n    string private _symbol = \"QV\";\n    uint8 private _decimals = 0;\n    uint8 private _totalSupply;\n    \n    \n    uint256 private vote_waiting_time = 1 hours;\n    mapping(address => uint8) private _balances;\n    mapping(bytes32 => bool) private proposals;\n    mapping(bytes32 => uint256) proposalsEnd;\n\n    struct voteeInfo {\n        address votee;\n        mapping(bytes32 => bool) voted;\n        mapping(bytes32 => uint256) voteWeight;\n        mapping(bytes32 => bool) proposalYesVote;\n    }  \n\n\n    struct votingInfo {\n        bytes32 proposal;\n        uint256 yesVotes;\n        uint256 noVotes;\n        uint256 totalVotes;\n        bool active;\n        bool passed;\n    }\n\n    mapping(bytes32 => votingInfo) results;\n    mapping(address => voteeInfo) voteeDB;\n\n    constructor() public {\n        owner = msg.sender;\n    }\n\n    modifier isProposal(bytes32 proposal) {\n     require(proposals[proposal] == true);\n     _;   \n    }\n\n    modifier isOwner() {\n        require(msg.sender == owner);\n        _;\n    }\n    /**\n     * @dev Returns the name of the token.\n     */\n    function name() public view returns (string memory) {\n        return _name;\n    }\n\n    /**\n     * @dev Returns the symbol of the token, usually a shorter version of the\n     * name.\n     */\n    function symbol() public view returns (string memory) {\n        return _symbol;\n    }\n\n    /**\n     * @dev Returns the number of decimals of the token.\n     * Note that since this is a voting token we do not want it to be divisible\n     */\n    function decimals() public view returns (uint8) {\n        return _decimals;\n    }\n    \n    /**\n     * @dev The total number of tokens in circulation\n     */\n    function totalSupply() public view returns (uint8) {\n        return _totalSupply;\n    }\n\n    function getBalance(address address_to_check) public view returns(uint8) {\n        return _balances[address_to_check];\n    }\n\n    function createProposal(bytes32 new_proposal) public {\n        proposals[new_proposal] = true;\n        proposalsEnd[new_proposal] = now + vote_waiting_time;\n\n        votingInfo memory new_prop = votingInfo( {\n            proposal: new_proposal,\n            yesVotes: 0,\n            noVotes: 0,\n            totalVotes: 0,\n            active: false,\n            passed: false\n        });\n        results[new_proposal] = new_prop;\n\n        }\n\n\n    function checkProposal(bytes32 proposal) isProposal(proposal) public returns(bool truth){\n        require(voteeDB[msg.sender].voted[proposal] == true, \"You must of voted to check proposal\");\n        require(now > proposalsEnd[proposal]);\n        if(results[proposal].yesVotes > results[proposal].noVotes) {\n            results[proposal].active = false;\n            results[proposal].passed = true;\n            //Emit vote outcome\n            return true;\n        }\n\n        else {\n            results[proposal].active = false;\n            results[proposal].passed = false;\n            return false;\n        }\n    }\n\n    function vote(bytes32 proposal, uint8 votes, bool yesVote) isProposal(proposal) public {\n        require(getBalance(msg.sender) >= votes, \"You can only vote with as many votes as you currently possess\");\n        require(now <  proposalsEnd[proposal], \"It is past time of voting\");\n        require(voteeDB[msg.sender].voted[proposal] != true, \"You cannot vote twice\");\n        \n        uint8 weight = sqrt(votes);\n        burn(msg.sender, votes);\n        if(yesVote) {\n            results[proposal].yesVotes += weight;\n        }\n        else {\n            results[proposal].noVotes += weight;\n        }\n        results[proposal].totalVotes += weight;\n        voteeDB[msg.sender].voted[proposal] = true;\n        voteeDB[msg.sender].voteWeight[proposal] = weight;\n        voteeDB[msg.sender].proposalYesVote[proposal] = yesVote;\n        \n    }\n    function sqrt(uint8 num) public returns(uint8 root) {\n        uint8 z = (num + 1) / 2;\n        uint8 y = num;\n        while (z < y) {\n            y = z;\n            z = (num / z + z) / 2;\n        }\n        return y;\n    }\n\n    function mint(address address_to_add, uint8 votes) public isOwner() {\n        _totalSupply += votes;\n        _balances[address_to_add] += votes;\n    } \n\n    function burn(address address_to_burn, uint8 votes) internal {\n        require(getBalance(address_to_burn) >= votes, \"Cannot burn more votes then address owns\");\n        _totalSupply -= votes;\n        _balances[address_to_burn] -= votes;\n    }\n\n    \n}\n\n",
  "sourcePath": "/mnt/c/users/colin/dev/Blockchain/quad_dao/contracts/Votingtoken.sol",
  "compiler": {
    "name": "solc",
    "version": "0.5.16+commit.9c3226ce.Emscripten.clang"
  },
  "schemaVersion": "3.2.3",
  "updatedAt": "2020-08-20T23:01:41.932Z",
  "networkType": "ethereum",
  "devdoc": {
    "methods": {
      "decimals()": {
        "details": "Returns the number of decimals of the token. Note that since this is a voting token we do not want it to be divisible"
      },
      "name()": {
        "details": "Returns the name of the token."
      },
      "symbol()": {
        "details": "Returns the symbol of the token, usually a shorter version of the name."
      },
      "totalSupply()": {
        "details": "The total number of tokens in circulation"
      }
    }
  },
  "userdoc": {
    "methods": {}
  }
}